:020000040800F2
:10000000E0070020A1010008CF2E00080D25000800
:10001000CD2E00083F140008F73200080000000051
:100020000000000000000000000000005B3000083D
:100030004114000800000000413000085D30000855
:10004000BB010008BB010008BB010008BB010008A0
:10005000BB010008BB010008BB010008BB01000890
:1000600043140008BB010008BB010008BB010008E5
:10007000BB010008BB010008BB010008BB01000870
:10008000BB010008BB010008BB010008BB01000860
:10009000BB010008BB010008BB010008BB01000850
:1000A000BB010008BB010008BB010008BB01000840
:1000B000BB010008BB010008BB010008BB01000830
:1000C000BB010008BB010008BB010008BB01000820
:1000D000BB010008BB010008BB010008BB01000810
:1000E000BB010008BB010008BB01000800F002F8DA
:1000F00000F047F80AA090E8000C82448344AAF17B
:100100000107DA4501D100F03CF8AFF2090EBAE878
:100110000F0013F0010F18BFFB1A43F0010318473B
:100120005C8200007C820000103A24BF78C878C14D
:10013000FAD8520724BF30C830C144BF04680C60ED
:10014000704700000023002400250026103A28BF35
:1001500078C1FBD8520728BF30C148BF0B60704739
:10016000662906F08A84002070471FB500F026FC3F
:1001700004000020002105F0FBFBE0601FBD10B56E
:1001800010BD00F01FFD1146FFF7EFFF04F0E2FB8A
:1001900000F03DFD03B4FFF7F2FF03BC00F080FD6B
:1001A0000948804709480047FEE7FEE7FEE7FEE70B
:1001B000FEE7FEE7FEE7FEE7FEE7FEE70448054947
:1001C000054A064B70470000BF300008ED000008EC
:1001D000E0010020E0070020E0030020E003002011
:1001E00010B54C1084EA530404D54042C1F100011B
:1001F00038BF491E1B4204D55242C3F1000338BF29
:100200005B1E00F00AF914F0804F04D04042C1F1A7
:10021000000138BF491E14F0004F04D05242C3F110
:10022000000338BF5B1E10BD0FB41CB5074B06AAF8
:100230007B4469460090059800F085FB00206946E4
:1002400000F094FB1CBC5DF814FB000039070000B3
:100250002DE9F0474FF0000A89460446C0F820A077
:100260002046E1688847002876D0252806D0D4E9C2
:1002700001219047206A401C2062F1E7E168204696
:1002800000258847C4F81CA006460027C4F818A01B
:100290002A2E09D0304603F0D5F838B304EB87088E
:1002A000303EC8F8186019E059F8041B204604EBEA
:1002B00087029161E1688847012F064618D1E069FD
:1002C000002820DA25F020051DE0D8F8180000EB02
:1002D000800006EB40003038C8F818002046E1687E
:1002E0008847064603F0AEF80028EED1012F0AD069
:1002F0002E2E08D12046E16888477F1C0646022F33
:1003000045F02005C4DBA069002803DA404245F02F
:100310000105A061E80701D025F01005B6B1A6F1EE
:100320004100192802D8203645F400654A46314676
:10033000204625604D46FFF713FF58B1012806D02F
:10034000ED1D25F0070000F1080989E704E005F13B
:10035000040985E730468AE7206ABDE8F08740EA6D
:10036000010310B59B070FD1042A0DD310C808C98B
:10037000121F9C42F8D020BA19BA884201D9012034
:1003800010BD4FF0FF3010BD1AB1D30703D0521C7F
:1003900007E0002010BD10F8013B11F8014B1B1BBA
:1003A00007D110F8013B11F8014B1B1B01D1921E24
:1003B000F1D1184610BD02F0FF0343EA032242EADE
:1003C000024200F0DABA4FF0000200B5134694463C
:1003D0009646203922BFA0E80C50A0E80C50B1F19D
:1003E0002001BFF4F7AF090728BFA0E80C5048BFB1
:1003F0000CC05DF804EB890028BF40F8042B08BF4F
:10040000704748BF20F8022B11F0804F18BF00F84A
:10041000012B704770477047704753EA020C00F099
:1004200069802DE9F04B4FF00006002B1FBFB3FA97
:1004300083F503FA05F424FA05F65E4012BF16436D
:10044000B2FA82F502FA05F4C5F120051EBF22FAC0
:1004500005FC44EA0C04203556EA044C4FEA1444E7
:1004600018BF641C4FF000084FF00009904271EB78
:10047000030C39D3002919BFB1FA81F701FA07F645
:10048000B0FA80F700FA07F6C7F120071EBF20FA7E
:1004900007FC46EA0C062037B6FBF4FCA7EB050781
:1004A000103F07F01F0BCBF120060CFA0BFB2CFAC8
:1004B00006F644BFB3460026202FA4BF5E464FF089
:1004C000000B5BEA060C08BF4FF0010B19EB0B09A0
:1004D000ABFB027C48EB0608C01B06FB02CC0BFB07
:1004E00003CC71EB0C01C1E70B460246414648467E
:1004F000BDE8F08B13B54FF000004FF00001AFF3F3
:100500000080BDE81C40704710B500F05BFA006841
:1005100010BD10B5044600F055FA046010BD7047D8
:100520002DE9FF4F0C461E464FF0FF378BB0D2E946
:100530000001DDF860800A908A46C1F30A5505B9CA
:100540003D46002108464FF00000BAF1000F00F4CC
:10055000400005DA00EB80004FF4400101EA500052
:100560004FEA9059B9F1010F00DDB9460A9850EAF7
:100570004A000ED044F61050A5F2FF3545432F1423
:10058000B8F1000F1ED07542291E1EDDC9F1000210
:100590001CE0B8F1010F4FF0000001D0302103E062
:1005A000F24305E02154401CB042FBDB3046002200
:1005B000002121540B99C1F80880C1E900200FB037
:1005C000BDE8F08FBD1B6D1CDEE74A4600DA6942CC
:1005D00006A800F081FA06AB93E8070003AB83E8B6
:1005E000070050460A9900F062FB8DE80700A0F56D
:1005F00000501F3800900398002D0ADD42F21F01C1
:100600004A460844002303A90390684600F0CBFD46
:1006100009E0A0F500504A461F38002303A90390C3
:10062000684600F0D5FD8DE807000004000C03D0FB
:100630004FF0FF30410800E01046B8F1000F03D042
:100640000022009215461EE0751E05D400F0BEF98A
:10065000303262556D1EF9D5B3460122084302D0EF
:1006600000227F1C04E02078302801D100227F1E68
:10067000002A099784D01DE0112D07DA00F0A6F9B1
:10068000303262556D1C50EA0102F5D1084302D0A8
:100690000098C8B10EE00021681E05E0235C625C92
:1006A00063542254401E491C8142F7DBAB46A81B11
:1006B000401E0990002004F80B000B98099AC0F81E
:1006C0000880C0E9002B7AE711264FF0000857E7B1
:1006D0002DE9F04F88460446D21D22F0070191B063
:1006E000D1E90001CDE90A0102F020FE02460B9893
:1006F000C00F01D02D2007E02068810701D52B20F5
:1007000002E0202101EAC000032A099001D0072A53
:1007100005DB03464146204600F09EF90BE12078B8
:10072000800601D5E06900E00620B8F1650F81463A
:1007300006D0B8F1660F18D0B8F1670F70D131E06C
:100740000020B9F1110F009001DB112301E009F144
:1007500001030AAA01A90CA8FFF7E2FEDDE90C706B
:10076000002609F10105834647E001204B46009031
:100770004FF000470AAA01A90CA8FFF7D1FEDDE956
:100780000DB00C995D46002610B909F101000D1855
:10079000B9EB050003D4C0F1FF3609F10105A5EB63
:1007A00009002BE0B9F1010F01DA4FF00109002037
:1007B000B9F1110F0090484601DD112300E0034616
:1007C0000AAA01A90CA8FFF7ABFEDDE90C704D46A3
:1007D00000268346207800070AD4AB4500DA5D4640
:1007E00001A8012D04DD411911F8011C302907D0A1
:1007F0004F4502DA17F1040F04DA012082460FE0B8
:100800006D1EEEE7002F02DCED1B3E4403E0781C7A
:10081000A84200DD7D1CB81B00F1010A4FF0004723
:100820002078000703D4AA4501DB4FF0FF3A0021EE
:10083000B7F1004F0DF143088DF8431024D002208A
:100840002B23002F01DA7F422D230A21021EA0F163
:10085000010000DC5FB197FBF1FC97FBF1F201FBBB
:100860001C7C17460CF1300C08F801CDEEE7A8F11E
:10087000010003702188090501D5452100E06521AB
:10088000A0F1010800F8011C09980FA9A1EB0807C5
:10089000FF1D00B10120411901EBEA70A169384444
:1008A000081A401EA0612078C00602D42046AFF38B
:1008B0000080099828B1D4E901219047206A401CA2
:1008C00020622078C00622D52046AFF300801EE0CB
:1008D000002E04DBB34502DD01A8805D00E030207E
:1008E000D4E901219047206A401C2062761CAAF1BD
:1008F00001005FEA000A0AD100F060F8C0680168F0
:10090000405CD4E901219047206A401C2062281EE7
:10091000A5F10105DCDC07E0D4E9012118F8010BA1
:100920009047206A401C2062381EA7F10107F3DCC3
:100930002046AFF30080032011B041E601694A1C54
:1009400002610878704700B58FB0CDE90131002110
:10095000059105497944CDE9031011466846FFF732
:1009600077FC0FB000BD0000E5FFFFFF0A6802F84A
:10097000010B0A6070474FF000020429C0F012809A
:1009800010F0030C3FF421ADCCF1040CBCF1020FCC
:1009900018BF00F8012BA8BF20F8022BA1EB0C0117
:1009A000FFF713BD5FEAC17C24BF00F8012B00F8FC
:1009B000012B48BF00F8012B70470000004870472A
:1009C000A0010020004870478001002030B5B0F140
:1009D0000A024FEA900E71F100034EEA817EB0EBFD
:1009E0000E0061EB91014FEA101E4EEA017E10EB02
:1009F0000E0041EB11114FEA102E4EEA016E10EB82
:100A00000E0041EB11214FEA104E4EEA014E10EB61
:100A10000E0041EB1141401841F100014FEAD000B6
:100A200040EA41704FEAD10110EB80054FEA8104A2
:100A300044EA907444EB01046D1944EB0404521B26
:100A4000A3414FF0000348BF0A3200D530BD401C1F
:100A500041F1000130BD00002DE9F0411F46044680
:100A600003260168072A01F4006004DB08B116A51B
:100A700005E016A503E008B115A500E015A521F0D5
:100A800010002060A069C01EA0610FB1401EA061CF
:100A90002046AFF300804FB1D4E90121384690479A
:100AA000206A401C2062C01C206206E0206AFAE72F
:100AB000D4E9012115F8010B9047761EF8D22046A3
:100AC000AFF30080BDE8F0814E414E006E616E00D4
:100AD000494E4600696E66002DE9F047814616468C
:100AE0008AB0354878440DC88DE80D003248784406
:100AF000801C03AC0DC884E80D0041F69B3008440F
:100B0000372190FBF1F290FBF1F5A5F1800501FB97
:100B100012041B3C02D56442012000E00020DFF8F3
:100B200098A080460027FA44AAF1BE0A0EE0E0072A
:100B30000AD03246684607EB470101230AEB8101E0
:100B400000F046FB8DE8070064107F1C002CEED1FE
:100B5000194F7F44AE3F19E0E80715D007EB0410AA
:100B60000DF1180A90E80E008AE80E00C068F04205
:100B700001D1981908903246012306A903A800F074
:100B800027FB03AB83E807006D10641C002DE3D145
:100B90004FF0010332466946B8F1000F03A802D0B6
:100BA00000F001FB01E000F013FBC9E90001C9F806
:100BB00008200AB0BDE8F0877C7800000048704744
:100BC000800100207546FFF7F9FFAE460500694633
:100BD000534620F00700854618B020B5FFF7EEFA1F
:100BE000BDE820404FF000064FF000074FF000082E
:100BF0004FF0000B21F00701AC46ACE8C009ACE8AF
:100C0000C009ACE8C009ACE8C0098D46704710B512
:100C10000446AFF300802046BDE81040FFF7BABAA3
:100C20004FF0013C50F8042B51F8043B9A4221D17B
:100C3000A2EB0C03934313EACC1317D150F8042B07
:100C400051F8043B9A4215D1A2EB0C03934313EAEB
:100C5000CC130BD150F8042B51F8043B9A4209D124
:100C6000A2EB0C03934313EACC13DBD04FF000004C
:100C7000704700BFD01A01BAB1FA81F101F0180132
:100C800022FA01F0CB40C1F12001DBB2C0B2C01AA0
:100C90002CFA01F3D11A914311EAC311E6D170473E
:100CA00001491820ABBEFEE72600020070475FEA4C
:100CB000400C08BF91F0000F4FEA8C234FEAC1228D
:100CC00043EA51514FEA1C5018BF00F5F0404FEA7B
:100CD000300018BF41F000415FEA6C5C00F02980F1
:100CE000BCF1FF3F08BF40F080407047130C06BFC7
:100CF00012044FF0100C4FF0000C130E04BF120240
:100D00000CF1080C130F04BF12010CF1040C930F2B
:100D100004BF92000CF1020CD30F04BF52000CF17F
:100D2000010C11464FF00002A0F11F00A0EB0C00D7
:100D3000704711F0004F08BF704731F000413FF499
:100D4000D5AF0B0C06BF09044FF0100C4FF0000C90
:100D50000B0E04BF09020CF1080C0B0F04BF0901B4
:100D60000CF1040C8B0F04BF89000CF1020CCB0FAB
:100D700004BF49000CF1010CCCF12003A0EB0C00E6
:100D800022FA03F302FA0CF241EA030100F1010036
:100D9000704720F07F4C80EA030023F07F47ACEBE4
:100DA000070303F57C5300F0004003F1FF032DE936
:100DB00080494FEA154B09B44FEA144325EA0B4E1C
:100DC00024EA03480FF2042606EB132749083E786D
:100DD0005FEA320203FB0667C7F5000707FB06F66A
:100DE0004FEA54374FEAD64606F1020607FB066C77
:100DF000CCF1005C4FEA1C472CEA074C07FB06F4D9
:100E00000CFB06F504EB15464FEA961634BF00209E
:100E10004FF000404FEAD13706FB07FC4FEA1C4C6D
:100E20000CFB0BF7D21B03FB0CF761EB07010CFB70
:100E30000EF7B0EB074072EB17420CFB08F734BF1C
:100E4000A2EB0742B2EB074261EB17414FEA0C44B9
:100E50004FEA910706FB07FC4FEA1C4C0CFB0BF713
:100E6000B0EBC74072EB573203FB0CF734BFA2EB79
:100E7000C742B2EBC74261EB57310CFB0EF7B0EB48
:100E8000C70072EB57720CFB08F734BFA2EBC70226
:100E9000B2EBC70261EB5771039F4FEA816141EAF0
:100EA000921104EBCC044FEAD1374FEA826206FB81
:100EB00007FC42EA90124FEA80604FEA1C4C0CFBA0
:100EC0000BF7D21B03FB0CF761EB07010CFB0EF7D2
:100ED000B0EB074072EB17420CFB08F734BFA2EBF4
:100EE0000742B2EB074261EB17414FEA8C554FEADC
:100EF000910704EB9C2406FB07FC4FEA1C4C0CFBFF
:100F00000BF7B0EBC74072EB573203FB0CF734BF63
:100F1000A2EBC742B2EBC74261EB57310CFB0EF7B5
:100F2000B0EBC70072EB57720CFB08F734BFA2EBB3
:100F3000C702B2EBC70261EB577115EB4C254FEAC4
:100F4000816141EA92114FEA82624FEAD13742EA67
:100F5000901206FB07FC44F100044FEA80604FEA60
:100F60001C4C0CFB0BF7D21B03FB0CF761EB0701CE
:100F70000CFB0EF7B0EB074072EB17420CFB08F7C7
:100F800034BFA2EB0742B2EB074261EB174115EB0E
:100F90001C154FEA813141EA92414FEA823242EA1E
:100FA00090424FEA80304FEA0C7644F1000448EA60
:100FB00003434EEA0B484FF0000EB2EB080C71EB06
:100FC000030724BF624639464EEB0E0E4FF0000B6E
:100FD0000018524149414BEB0B0BB2EB080C71EB83
:100FE00003077BF1000B24BF624639464EEB0E0E21
:100FF0004FF0000B0018524149414BEB0B0BB2EB89
:10100000080C71EB03077BF1000B24BF62463946E5
:101010004EEB0E0E51EA020718BF46F0010616EB22
:101020000E7655F1000254F1000103D5BDE88901A7
:10103000BDE80088BDE88901BDE80048B619524105
:1010400041EB0101A3F10103704780807F7E7D7C2D
:101050007B7A7978777676757473727171706F6E4A
:101060006E6D6C6C6B6A6A696868676666656464F5
:10107000636362616160605F5F5E5E5D5D5C5C5B7F
:101080005B5A5A59595858575756565555555454EE
:10109000535352525251515050504F4F4F4E4E4D4C
:1010A0004D4D4C4C4C4B4B4B4A4A4A494949484898
:1010B00048474747474646464545454444444443D8
:1010C00043434342424242414141002B9C4630D47B
:1010D00077002BD01CB54FEA370703B44FF0100050
:1010E0004FF01001BAF1000F06D0BCF1000FDCBFC9
:1010F00040F0080040F008014FF000000FBCBDE8D0
:1011000010400BF1010BBBF1010F08BF5FEA17079D
:1011100022BF12F1010211F101014FF0004143F130
:10112000000300F0004043EA00007047F9D357087D
:10113000D0E746EA064613F1400F4FEA16461FDD98
:1011400013F1200FDFBF16430A46002120335B4214
:10115000BED0C3F1200746EA064602FA07F74FEA77
:10116000164646EA0706C3F1200722FA03F201FAFF
:1011700007F721FA03F14FF0000342EA0702A7E75D
:1011800046EA020646EA06464FEA164646EA0106DF
:10119000BCBF46EA0646360C4FF000034FF0000293
:1011A0004FF0000194E72DE9804C9A46934670B4C5
:1011B00091E8380007C831EA400C48BF34EA430CD4
:1011C00003D5FFF7E6FDFFF780FFF0BCBDE8008C1C
:1011D0002DE9804C9A46934670B491E8380007C8D0
:1011E00010F0804F08BF13F0804F03D100F005F8D6
:1011F000FFF76BFFF0BCBDE8008C20F07F4780EA72
:10120000030023F07F4C07EB0C03A3F57C5300F0A5
:101210000040A3F1FE0392F0000F00F0B38095F0C0
:10122000000F00F077802DE901494FEA11404FEAA5
:10123000144621EA004800FB06FC24EA064708FBA6
:1012400006F607FB08F800FB07F718EB06484CEB1F
:10125000164C4FEA124B18EB07484FEA15464CEB79
:10126000174022EA0B4E0BFB06FC25EA06470EFB55
:1012700006F607FB0EFE0BFB07F71EEB064E4CEBCC
:10128000164C4FF000061EEB074E4CEB174B18EBBD
:101290000B0840F1000018EB0E0B58EB000840F172
:1012A00000008F1A4FF000013CBFC943661B14BFFA
:1012B000B5EB040C00213CBFC943F61B4FEA1744B1
:1012C0004EEA8E0E27EA04454FEA1C4704FB0762EC
:1012D0002CEA074C05FB07F70CFB05F604FB0CFC9E
:1012E00016EB074642EB174216EB0C4642EB1C424C
:1012F0001BEB060658EB0202414146EA9E0601D569
:10130000BDE80189B619524141EB0101A3F1010386
:10131000BDE801894FEA14454FEA114724EA054622
:1013200021EA074C05FB07F406FB07F70CFB06F167
:1013300005FB0CFC11EB074144EB17444FEA124745
:1013400011EB0C4144EB1C4422EA074C05FB07F26D
:1013500006FB07F70CFB06F605FB0CFC16EB074635
:1013600042EB174216EB0C4642EB1C456A1854F14F
:10137000000148BF7047B619524141EB0101A3F18A
:101380000103704795F0000F37D04FEA11424FEA42
:10139000144721EA024624EA074C02FB07F106FB48
:1013A00007F70CFB06F402FB0CFC14EB074441EBC3
:1013B00017414FEA154714EB0C4441EB1C4125EA59
:1013C000074C02FB07F506FB07F70CFB06F602FBD2
:1013D0000CFC16EB074645EB174516EB0C4645EBA8
:1013E0001C42121951F1000148BF7047B619524111
:1013F00041EB0101A3F1010370474FEA14454FEAA5
:10140000114724EA054621EA074C05FB07F106FBD4
:1014100007F70CFB06F24FF0000605FB0CFC12EB85
:10142000074241EB174112EB0C4251EB1C4148BF04
:101430007047921841EB0101A3F101037047FEE7E9
:101440007047042000F054B872B6FEE710B5084C9F
:1014500001220821204600F04CF90C2001F0F1FD9A
:1014600020460022BDE81040082100F042B90000EB
:101470000008014070B5044600F040F90546601CC4
:1014800002D004480078044400F038F9401BA04220
:10149000FAD370BD6800002010B504210F4800F099
:1014A00023F90F4C012811D0204600F091FE20684E
:1014B000406A0C4C80B2208004F0F2FC0A4A0B4BCC
:1014C00004F002FD04F06AFA606010BD216800209B
:1014D0004862BDE81040024800F052BE00080140DA
:1014E00038010020540000209CC420B07268913F55
:1014F000044910B50A68024202D00860FFF7CCFF29
:1015000010BD0000140401402DE9F84FDFF8B89138
:101510000024A9F1040B23460F2709F1040AABF1BB
:10152000040EC9E00125A5402A40AA427DD1674E9C
:10153000D1F804C0ACEB0608B44532D014DCBCF1E1
:10154000030F3AD009DCBCF1000F2AD0BCF1010F27
:101550001CD0BCF1020F31D11DE0BCF1110F17D02E
:10156000BCF1120F2AD119E0B8F5881F19D006DC9A
:10157000B8F5803F15D0B8F5801F1FD111E0B8F540
:10158000001F0ED0B8F5041F18D10AE0CB6815E093
:10159000CB681B1D12E0CB6808330FE0CB680C331F
:1015A0000CE08B682BB1012B4FF0080303D0456191
:1015B00004E0042302E0056100E00023FF2A01D8D3
:1015C000064601E000F104064FEA840501D9A5F1C1
:1015D0002005D6F8008007FA05FC28EA0C0803FA73
:1015E00005F548EA0508C6F800804D68ED0062D5AB
:1015F000374DAE6946F00106AE61AD6924F00306D1
:1016000005F001050095334D06EB050CDCF808509C
:10161000A607360F07FA06F825EA0805DFF8B880AE
:10162000404503D14FF0000817E044E0DFF8AC80FC
:10163000404502D14FF001080FE0DFF8A48040459B
:1016400002D14FF0020808E0DFF89880404502D14F
:101650004FF0030801E04FF0040808FA06F848EAE2
:101660000508CCF808804D68D9F80060ED024D46B9
:1016700001D5164300E096432E604D68DAF800600D
:10168000AD02554601D5164300E096432E604D68E5
:10169000DBF80060AD035D4601D5164300E09643DC
:1016A0002E604D68DEF80060ED03754601D51643E7
:1016B00000E096432E60641C0D682A46E5407FF4E6
:1016C00031AFBDE8F88F00000804014000001110A0
:1016D000001002400000014000080140000C0140E1
:1016E00000100140001401408068084000D0012033
:1016F00070470AB1016170470904FBE7014880683F
:10170000704700006800002070B5040025D094F8F0
:101710003D00002520B984F83C50204600F050F9E7
:10172000242084F83D002068016821F00101016057
:101730002068016841F4004101602068016821F4DB
:101740000041016000F0A2FA4D4A6168914201D85F
:101750004C4900E04C49884201D2012070BD4B4900
:101760002368B0FBF1F15E6826F03F060E435E6031
:101770006368934206D94FF4967359434FF47A73D2
:10178000B1FBF3F12368491C1E6A26F03F06314382
:1017900019626168914210D84900401EB0FBF1F215
:1017A000521CC2F30B02042A01D2042022E0B0FB37
:1017B000F1F0401CC0F30B001CE0A268F2B301EB97
:1017C000C10303EB0116431EB3FBF6F35B1C43F4AA
:1017D00080431B0549D092B301EBC10202EB01111A
:1017E000401EB0FBF1F0401CC0F30B0040F4804001
:1017F00040F400402168CA694CF6FF739A431043D5
:10180000C861D4E9071001432068026822F0C002D1
:1018100011430160D4E9030101432068826848F262
:10182000FF339A4311438160D4E9050108432168DD
:10183000CA6822F0FF021043C86001E00EE016E023
:101840002068016841F0010101602564202084F8CE
:101850003D00256384F83E50002070BD01EB410639
:10186000431EB3FBF6F35B1CB3E70120C2E701EBB9
:101870004101401EB0FBF1F0401CC0F30B00B7E784
:10188000A086010080841E0000093D0040420F0038
:101890002DE9FF4F83B09A46DDE911979346044640
:1018A000DDF84080FFF72AFF054694F83D00202828
:1018B0007FD11923012240492046009500F0BEFE49
:1018C000002876D194F83C00012872D0012084F8D9
:1018D0003C0020680168C90703D1016841F001019B
:1018E00001602068016821F400610160212084F812
:1018F0003D00402084F83E0000262664C4F8248081
:10190000A4F82A90608D20852C48E062CDE900750E
:1019100053465A462046049900F010FE70B930E054
:101920002A463946204600F02FFF58B1206C042883
:1019300004D12068016841F400710160012007B002
:10194000BDE8F08F606A216800780861606A401C19
:101950006062218D491E89B22185628D521E628589
:1019600022685369DB435B070BD469B100781061CF
:10197000606A401C6062208D401E2085608D401E84
:101980006085208D0028CBD12A463946204600F0BC
:1019900029FE0028CAD154F83D0B016841F40071BA
:1019A0000160202004F81E09E67766770020C6E76C
:1019B000FFE70220C3E70000020010000000FFFF65
:1019C00010B586B000210091019102910391006849
:1019D0001349884222D1134CA06940F00800A0614D
:1019E000A069694600F0080004904FF44070009030
:1019F00012200190032003900B48FFF785FD0B4850
:101A0000416841F0E06141F002014160E06940F469
:101A10000010E061E06900F40010049006B010BD11
:101A20000054004000100240000C01400000014042
:101A30000248816802781144816070476800002084
:101A4000074810B5016841F010010160032000F063
:101A500075F80F2000F006F800F024F8002010BD03
:101A60000020024070B50D4D04464FF47A7128787D
:101A7000B1FBF0F00A490968B1FBF0F000F0CCFAD4
:101A800048B9102C07D200222146501E00F036F82B
:101A900000206C6070BD012070BD00006800002057
:101AA000740000200C4808B5816941F00101816192
:101AB000816901F001010091C16941F08051C1616A
:101AC000C06900F0805000900448416821F0E06156
:101AD00041F00071416008BD00100240000001406B
:101AE000002809DB00F01F0201219140400980001D
:101AF00000F1E020C0F8001170470000F0B40E4B78
:101B00001B680C46C3F30223C3F10705042D00D95B
:101B10000425191D072901D2002300E0DB1E012640
:101B200006FA05F1491E214099409E40761E164056
:101B30003143F0BC01F00EBC0CED00E0064900F0B2
:101B4000070208684FF6FF03184040EA0220034AE4
:101B500010430860704700000CED00E00000FA053B
:101B60002DE9F0470F46050061D0434E306800F084
:101B70000700B84209D2306820F0070038433060CF
:101B8000306800F00700B84251D128683B4C81070B
:101B900012D5400703D5606840F4E06060602878A3
:101BA000000703D5606840F4605060606068A96811
:101BB00020F0F000084360602878C00728D06868EB
:101BC000012810D02168022810D0890700292EDAB8
:101BD000616821F0030101436160FFF78FFD8046DA
:101BE00041F288390DE021688903EFE78901EDE7CB
:101BF000FFF784FDA0EB0801494502D90320BDE8A9
:101C0000F0876068696800F00C00B0EB810FEFD1DD
:101C1000306800F00700B8420BD9306820F00700A8
:101C200038433060306800F00700B84201D001202E
:101C3000E5E72878400705D56068E96820F4E060AA
:101C4000084360602878000706D56068296920F499
:101C5000605040EAC100606000F028F86168084AFE
:101C6000C1F30311515CC84006490860064800688A
:101C7000FFF7F8FE0020C2E70020024000100240FB
:101C8000DC810008740000206C0000200448054935
:101C900000684968044AC1F30221515CC84070479A
:101CA0007400002000100240EC8100080E4A5168C8
:101CB0000E4801F00C03042B11D0082B0FD10C4857
:101CC000C1F38343C903C05C0AD55168084AC1F314
:101CD0004041921E515C054A5043B0FBF1F0704701
:101CE00004494843704700000010024000127A0087
:101CF000CC81000800093D002DE9F84F040070D0A8
:101D00002078C04DC00749D06868C0F38100012821
:101D100007D06868C0F38100022809D16868C00351
:101D200006D52868800339D560680028E7D035E0FB
:101D30006068B0F5803F0BD010B1B0F5A02F11D086
:101D4000286820F480302860286820F4802002E091
:101D5000286840F480302860606890B1FFF7CEFCBE
:101D600006460AE0286840F480202860F0E700BFBB
:101D7000FFF7C4FC801B642873D828688003F7D55C
:101D80000CE0FFF7BBFC064605E000BFFFF7B6FC22
:101D9000801B6428F0D828688003F7D420789A4EF6
:101DA00080074FF001094FF0000839D5686810F03E
:101DB0000C0F07D06868C0F38100022809D1686859
:101DC000C00306D42868800714D52069012808D1EB
:101DD00010E02069B0B1C6F80090FFF78FFC07460D
:101DE00005E00AE1FFF78AFCC01B0228C4D8286876
:101DF0008007F7D52868616920F0F80040EAC10043
:101E000028600DE0C6F80080FFF778FC074604E084
:101E1000FFF774FCC01B022823D828688007F7D47A
:101E2000207800072CD57948A169D9B1C0F8009075
:101E3000FFF764FC074604E0FFF760FCC01B0228C4
:101E40000FD8686A8007F7D571484FF4FA510068D7
:101E5000B0FBF1F0009000BF0098411E0091FAD253
:101E60000EE080E0C0F80080FFF748FC074604E081
:101E7000FFF744FCC01B022875D8686A8007F7D4B6
:101E80002078400760D5E8690027C00008D4E869D9
:101E900040F08050E861E869012700F08050009030
:101EA0005C480168C90513D40168834641F4807118
:101EB0000160FFF723FC824606E000BFFFF71EFC2F
:101EC000A0EB0A0064284ED8DBF80000C005F5D569
:101ED000E06801280AD008B1052813D0286A20F04C
:101EE00001002862286A20F0040002E0286A40F01D
:101EF00001002862E06841F2883B98B1FFF7FEFBE1
:101F000082460BE0286A40F004002862EEE700BF3A
:101F1000FFF7F4FBA0EB0A0159455AD8286A80075D
:101F2000F6D50CE0FFF7EAFB824605E0FFF7E6FB9B
:101F3000A0EB0A0159454CD8286A8007F6D41FB196
:101F4000E86920F08050E861E06988B36968C1F30E
:101F50008101022944D00228C6F8608004D0FFF72E
:101F6000CDFB044638E034E0FFF7C8FB074604E049
:101F7000FFF7C4FBC01B02282BD828688001F7D4C8
:101F8000206AB0F5803F05D16868A16820F4003070
:101F900008436860D4E908010843696821F47411B2
:101FA00008436860C6F86090FFF7A8FB044606E0A7
:101FB00025E000BFFFF7A2FB001B022809D8286814
:101FC0008001F7D51BE000BFFFF798FB001B02283C
:101FD00002D90320BDE8F88F28688001F4D40EE010
:101FE0000128F7D06868226A00F48031914204D158
:101FF000616A00F47010884201D00120EAE70020F5
:10200000E8E7000000100240000042428004424223
:10201000740000200070004010B5401EB0F1807FB9
:1020200001D3012010BD4FF0E02460610F21601743
:1020300001F090F90020A06107202061002010BD70
:1020400010B590F83C20012A22D0012280F83C20D3
:10205000CA688C6822F4407222434C6822F4806281
:1020600022430C6822F4006222430C6922F480525D
:1020700022434C6922F400522243C969002322F40E
:1020800080420A4301684A6480F83C30002010BD59
:10209000022010BD70B590F83C20012A26D0012402
:1020A00080F83C40022280F83D2003685A689D6811
:1020B00022F070060A6832435A600D4B02689A4259
:1020C00008D0B2F1804F05D00A4B9A4202D00A4B99
:1020D0009A4204D1496825F080031943916080F841
:1020E0003D40002180F83C10084670BD022070BDC4
:1020F000002C0140000400400008004010B504001E
:1021000003D094F83D0010B107E0012010BD00207D
:1021100084F83C00204600F01FF8022084F83D00BF
:10212000211D206800F0CCFF012084F8460084F8CF
:102130003E0084F83F0084F8400084F8410084F8B1
:10214000420084F8430084F8440084F8450084F891
:102150003D00002010BD000008B500680649884217
:1021600008D10648C16941F00201C161C06900F0AF
:102170000200009008BD0000000400400010024072
:1021800090F83D10012901D001207047022180F80C
:102190003D1000680B49884208D0B0F1804F05D04F
:1021A0000949884202D00949884204D1816801F076
:1021B0000701062903D0016841F0010101600020F8
:1021C00070470000002C014000040040000800405F
:1021D00001680A6A41F211131A4207D10A6A9B1078
:1021E0001A4203D10A6822F001020A60012180F834
:1021F0003D100020704770B5044690F83C00002563
:10220000012817D0012684F83C60022084F83D00A4
:102210002068826822F0770222F47F428260086898
:10222000502838D00DDC20284FD005DC90B3102882
:1022300011D14AE0022070BD302846D040280AD192
:102240003BE060282FD070280DD0B0F5805F03D020
:10225000B0F5005F12D0012584F83D60002084F8BD
:102260003C00284670BDCB68D1E90121206800F010
:102270006AFF2068816841F0770109E0CB68D1E905
:102280000121206800F05FFF2068816841F48041EF
:102290008160E1E719E0CA684968206801F008F840
:1022A0005021206806E0CA684968206801F011F8EA
:1022B0006021206800F051FFCEE7CA6849682068B5
:1022C00000F0F6FF40212068F4E72268014610463E
:1022D000F0E7000000B585B0002100910191029166
:1022E000039100680B49884212D10B48816941F083
:1022F000040181618069694600F0040004904FF494
:10230000106000900220019003900448FFF7FCF851
:1023100005B000BD002C0140001002400008014043
:1023200070B5044690F83C0000260D4601280FD0F9
:10233000012084F83C006AB1042A1DD0082A2FD05D
:102340000C2A3FD00126002084F83C00304670BDA6
:10235000022070BD206800F009FF2068816941F00B
:10236000080181612068816921F004018161206890
:1023700081692A69114311E0206800F01FFF20687D
:10238000816941F4006181612068816921F4806183
:102390008161206881692A6941EA02218161D2E76D
:1023A000206800F037FF2068C16941F00801C16171
:1023B0002068C16921F00401C1612068C1692A69EE
:1023C000114311E0206800F051FF2068C16941F419
:1023D0000061C1612068C16921F48061C161206828
:1023E000C1692A6941EA0221C161ACE710B5040064
:1023F00003D094F83D0010B107E0012010BD00208B
:1024000084F83C00204600F01FF8022084F83D00CC
:10241000211D206800F054FE012084F8460084F855
:102420003E0084F83F0084F8400084F8410084F8BE
:10243000420084F8430084F8440084F8450084F89E
:102440003D00002010BD000008B500680649884224
:1024500008D10648816941F400618161806900F416
:102460000060009008BD0000002C014000100240F8
:1024700010B50446022249B104290ED0082913D010
:1024800094F84100012816D0012010BD94F83E00B8
:102490000128F9D184F83E200FE094F83F0001288C
:1024A000F2D184F83F2008E094F840000128EBD1F5
:1024B00084F8402001E084F841200122206800F0E7
:1024C00035FE0F492068884203D1426C42F4004235
:1024D00042642068884208D0B0F1804F05D0094995
:1024E000884202D00849884204D1816801F007017E
:1024F000062903D0016841F001010160002010BDF0
:10250000002C01400004004000080040FEE7016884
:102510004A69D24352050FD46FF480624A610021A8
:1025200040F8301F202242738173026942F0040296
:102530000261017301207047002070472DE9F843C4
:10254000044600680D46DDE908970168984616467E
:1025500041F4807101604B4600224FF0011120468A
:10256000009700F06BF848B120680068C00502D5FC
:102570004FF4007020640320BDE8F883216805F063
:10258000FE0008613B464A461549204600F09EF889
:1025900088B920684169806900903A4649462046DA
:1025A00000F0F2F848B1206C042804D120680168DA
:1025B00041F4007101600120DEE7F5B2B8F1010FCE
:1025C00009D02168300A08613A464946204600F0A1
:1025D000DBF80028E7D1206805610020CCE7000087
:1025E0000200010070B516460D4604461EE0204666
:1025F000FFF78DFF08B1012070BD681C16D0FFF7F2
:102600007DF8801BA84200D885B920684069C04386
:1026100040070BD5002044F8300F20216173A073D0
:10262000216941F0200121612073E4E720684069BD
:10263000C0434007DBD4002070BD00002DE9F04707
:10264000984617460D460446C1F30746DDF820902C
:102650002AE000BFB8F1FF3F26D0FFF74FF8A0EB0C
:102660000901414502D8B8F1000F1DD12068012EA3
:1026700016D0806925EA00000004000C12D000206A
:10268000B84211D1002044F8300F20216173A073AB
:10269000216941F02001216120730120BDE8F0870C
:1026A0004069E7E70120EBE72068012E0AD0806946
:1026B00025EA00000004000C06D00020B842C9D072
:1026C0000020EBE74069F3E70120F7E72DE9F04749
:1026D000984616460D4604464FF000094FF0200A72
:1026E000C1F3074723E020684069C043400515D483
:1026F0002068016841F40071016021686FF4806016
:102700004861C4F8309084F83DA084F83E90216C74
:1027100041F00401216484F83C9021E0701C06D053
:10272000FEF7ECFFA0EB0800B04203D816B1012F72
:102730001FD021E02068012F15D0806925EA000014
:102740000004000C18D000BF44F8309F84F80DA09E
:1027500084F80E90216941F02001216184F80C90E9
:102760000120BDE8F087406925EA00000004000C64
:10277000EAD12068406901E02068806925EA00000C
:102780000004000CAFD1ECE770B516460D460446C8
:102790001EE02046FFF7BBFE08B1012070BD681C9B
:1027A00016D0FEF7ABFF801BA84200D885B9206881
:1027B0004069C04300060BD5002044F8300F2021AB
:1027C0006173A073216941F0200121612073E4E766
:1027D00020684069C0430006DBD4002070BD0000C3
:1027E00010B50E4C002208212046FEF782FF00F0B3
:1027F00017F8012210212046FEF77BFF00F010F8A9
:10280000002210212046FEF774FF00F009F8204650
:102810000122BDE810400821FEF76BBF000C01400B
:102820000020401CC0B20A28FBD370470C4800B5FA
:10283000816985B041F0080181618069694600F0D5
:1028400008000490182000900320039011200190AC
:102850000448FEF759FE00F09DF805B000BD0000E9
:1028600000100240000C014010B50C4C0122082160
:102870002046FEF73EFFFFF7D3FF0122102120463E
:10288000FEF737FFFFF7CCFF002210212046FEF7AE
:1028900030FFBDE81040FFF7C3BF0000000C01404F
:1028A0002DE9F0410024134E074625466006040E2C
:1028B000012210213046FEF71CFFFFF7B1FF08216F
:1028C0003046FEF711FF08B1641CE4B2002210216B
:1028D0003046FEF70EFFFFF7A3FF6D1CEDB2082D8B
:1028E000E4D327B1FFF77CFF2046BDE8F081FFF776
:1028F000BBFFF9E7000C014070B5154E05460024FA
:10290000280601D5012200E0002208213046FEF70A
:10291000F0FEFFF785FF012210213046FEF7E9FEA9
:10292000FFF77EFF002210213046FEF7E2FE072C63
:1029300004D1012208213046FEF7DBFE6806050EB1
:10294000FFF76EFF641CE4B2082CD9D370BD000001
:10295000000C014010B50E4C012208212046FEF764
:10296000C8FE012210212046FEF7C3FEFFF758FFE4
:10297000002208212046FEF7BCFEFFF751FF00228F
:1029800010212046FEF7B5FEBDE81040FFF748BF16
:10299000000C014010B50A4C002208212046FEF729
:1029A000A8FE012210212046FEF7A3FEFFF738FF04
:1029B00020460122BDE810400821FEF79ABE000023
:1029C000000C014070B5104D012208212846FEF789
:1029D00090FEFFF725FF012210212846FEF789FE11
:1029E000FFF71EFF08212846FEF77EFE08B10124EE
:1029F00000E00024002210212846FEF77AFEFFF7AF
:102A00000FFF204670BD0000000C01402DE9F04191
:102A10000D461B4E04004FF400514FF4805705D56E
:102A200001223046FEF765FE002204E00022304617
:102A3000FEF75FFE012239463046FEF75AFE002CB3
:102A400000DA64420F4F386804644FF480414C0050
:102A5000002D05DA01223046FEF74BFE002204E08D
:102A600000223046FEF745FE012221463046FEF7A1
:102A700040FE002D00DA6D4238684563BDE8F08104
:102A8000000C0140F000002010B5FFF7CFFE8021C0
:102A90006B2000F0C0F86420FEF7ECFC00216B20F6
:102AA00000F0B9F8032000F082F8002000F07AF876
:102AB000322000F099F80021382000F0ACF8002115
:102AC0006A2000F0A8F80021232000F0A4F880215B
:102AD000372000F0A0F8752000F011F8682801D028
:102AE000012010BD01216B2000F095F800216C2021
:102AF00000F091F8322000F077F8002010BD10B5FA
:102B00000446FFF727FFD020FFF7F6FEFFF75AFF36
:102B10002046FFF7F1FEFFF755FFFFF71BFFD1201F
:102B2000FFF7EAFEFFF74EFF0020FFF7B9FE04466D
:102B3000FFF730FF204610BD2DE9F0411D46144639
:102B40000F460646FFF706FF7006000EFFF7D4FE9D
:102B5000FFF738FF20B1FFF71DFF0120BDE8F0812E
:102B60003846FFF7C9FEFFF72DFFFFF7F3FE012000
:102B700000EB4600C0B2FFF7BFFEFFF723FF09E0FE
:102B8000012C0DD05FF00100FFF78AFE641E05F8EE
:102B9000010BE4B2002CF3D1FFF7FCFE0020DDE7CF
:102BA0000020F1E7C006010E1C2000F034B8C0067A
:102BB000010E1B2000F02FB8BC2801D3012110E02A
:102BC000622801D302210CE02A2801D3032108E066
:102BD000142801D3042104E00A2801D3052100E0D0
:102BE00006211A2000F017B810B504464FF47A7089
:102BF000844201D9044602E0042C00D20424B0FB34
:102C0000F4F0401EC1B2192000F005F86008BDE8DC
:102C10001040FFF7D1BF70B50C460546FFF79AFE8E
:102C2000D020FFF769FEFFF7CDFE50B92846FFF729
:102C300063FEFFF7C7FE2046FFF75EFEFFF7C2FE0A
:102C400018B1FFF7A7FE012070BDFFF7A3FE00201B
:102C500070BD2DE9F0411E4615460F460446FFF7AC
:102C600079FE6006000EFFF747FEFFF7ABFE60B986
:102C70003846FFF741FEFFF7A5FE00240CE0305D6B
:102C8000FFF73AFEFFF79EFE20B1FFF783FE01201B
:102C9000BDE8F081641CE4B2AC42F0D3FFF77AFEE9
:102CA0000020F5E72DE9F04186B000242D4800947E
:102CB000019402940394816941F01001816181695A
:102CC00001F010010491816941F020018161816965
:102CD00001F020010491816941F004018161816961
:102CE00001F004010491816941F00801816180696A
:102CF0001D4F00F008000490002208213846FEF71E
:102D0000F8FCDFF868804FF2180600223146404692
:102D1000FEF7EFFC042000901548CDE90104694658
:102D20003846FEF7F1FB08200125CDE90005032018
:102D3000CDE9024069463846FEF7E6FB0220CDE9C0
:102D40000240CDE9006569464046FEF7DDFB002202
:102D500011460820FEF7D2FE0820FEF7C1FE06B09D
:102D6000BDE8F0810010024000080140000C014065
:102D7000000031100D4810B50B4901600C4941604D
:102D800000214FF480428160C0E9031241618161FA
:102D9000C1610162FEF7B8FC002803D0BDE8104015
:102DA000FEF752BB10BD0000005400409C00002004
:102DB000A086010010B592B000240F941C21684633
:102DC0001094FDF700FB202107A8FDF7FCFA24482A
:102DD000224901604721C0E901146321C0E90314BD
:102DE00044618461FFF702FB08B1FEF72DFB0F94ED
:102DF0000FA91B481094FFF74DF908B1FEF724FB0B
:102E0000602000906420CDE90104039404940594AB
:102E10000022694612480694FFF782FA08B1FEF7CD
:102E200013FB0C2269460E48FFF77AFA08B1FEF749
:102E30000BFB0794089409944FF400500A94CDE9D1
:102E40000B4007A906480E94FFF7FAF808B1FEF701
:102E5000FBFA0348FFF73EFA12B010BD002C014008
:102E6000F000002010B586B00024174800940194AB
:102E70000294039404941349059401604721C0E926
:102E800001144FF6FF71C0E903148461FFF736F9AE
:102E900008B1FEF7D9FA4FF48050009069460A480D
:102EA000FFF7A9F908B1FEF7CFFA049404A9064880
:102EB0000594FFF7EFF8002801D0FEF7C5FA06B039
:102EC00010BD00000004004038010020FEE7FEE7CE
:102ED00070B5002404F1B000C0B200F08DF80020FD
:102EE00000F08AF8102000F087F80025002000F09C
:102EF00095F86D1CEDB2802DF8D3641CE4B2082C5B
:102F0000E8D370BD10B5C820FEF7B4FABDE8104094
:102F100000F0F2B910B50446B031C8B200F06CF858
:102F2000102040EA141000F067F804F00F00BDE82C
:102F3000104000F061B800002DE9F041203A002473
:102F40000D468046D6B27F2803D900208D1C8046CE
:102F5000EDB2102B29460FD0FFF7DCFF164906EB28
:102F6000460001EB4005285D00F058F8641CE4B20F
:102F7000062CF8D3BDE8F081FFF7CCFF0F4F00BF60
:102F800004EB0610385C00F049F8641CE4B2082C2D
:102F9000F6D36D1CE9B24046FFF7BCFF5FF00004BA
:102FA00004EB06103844007A00F038F8641CE4B2F0
:102FB000082CF5D3DEE70000BA6B0008E26D0008CC
:102FC0002DE9F041984617460E46044600250DE0CF
:102FD000434631462046FFF7AFFF0834E4B2782C71
:102FE00002D90024B61CF6B26D1CEDB27A5D002A3F
:102FF000EED1BDE8F081000001B584B001214FF4AD
:10300000807204A88DE807000B4600227821024850
:10301000FEF73EFC05B000BD9C00002001B584B069
:1030200001214FF4807204A88DE807000B4640226E
:1030300078210248FEF72CFC05B000BD9C00002062
:10304000704708B500EBC00020F06040009000BF62
:103050000098411E0091FAD208BD7047FEF7E8BC07
:1030600030B58FB028216846FDF7ADF914210AA8C4
:10307000FDF7A9F901210804CDE90010002402940C
:1030800002250491CDE907504FF4E01009906846FD
:10309000FEF732FE08B172B6FEE70F20CDE90A0551
:1030A0004FF48060CDE90C4002210AA80E94FEF78F
:1030B00057FD002801D072B6FEE70FB030BD704753
:1030C000F0B50268164B174C174D4FF080479842E9
:1030D00005D0B84203D0A04201D0A84203D122F0CB
:1030E00070064A683243984205D0B84203D0A042E5
:1030F00001D0A84203D122F44074CA6822434C692B
:1031000022F08002224302608A68C2620A688262F8
:10311000984201D10969016301214161F0BD0000BC
:10312000002C0140000400400008004010B501F0F0
:103130001F030121046A99408C430462016A9A408A
:103140001143016210BD10B5846842EA032224F4E1
:103150007F440A432243826010BD826822F07002DD
:103160000A4342F0070181607047000030B5036AEE
:10317000026A22F0010202624268846924F0730547
:103180000C682C4323F002058B682B430A4DA842A0
:103190000BD123F00805CB6822F440722B434D6914
:1031A00023F0040315438A692A4342608461496815
:1031B0004163036230BD0000002C014030B5026A5B
:1031C000036A23F010030362436884690D6824F4E2
:1031D000E64444EA05248D6822F0200242EA051202
:1031E0000B4DA8420ED1CD6822F0800242EA0512B2
:1031F0004D6923F4406343EA85038D6922F0400260
:1032000043EA85034360846149688163026230BD9B
:10321000002C014030B5036A026A22F48072026217
:103220004268C46923F4007324F073050C682C43CE
:103230008D6843EA05230C4DA8420ED1CD6823F4D6
:10324000006343EA05234D6922F4405242EA051225
:103250008D6923F4806342EA05124260C4614968C3
:10326000C163036230BD0000002C014030B5046A28
:10327000026A22F4805202624268C3690D6823F434
:10328000E64343EA05238D6824F4005444EA0534F8
:10329000064DA84204D14D6922F4804242EA8512CB
:1032A0004260C36149680164046230BD002C014082
:1032B00010B5036A046A24F001040462846924F0EE
:1032C000F00444EA021423F00A020A438461026211
:1032D00010BD10B5036A046A24F010040462846906
:1032E00023F0A00324F4704444EA023243EA0111BB
:1032F0008261016210BDFEE7FEB50024094F4FF464
:10330000807501263819CDE90006012300227821B5
:1033100002950548FEF7BCFA641CE4B21B2CF1D3FD
:10332000FEBD0000000000209C000020490050EA83
:10333000C12018BF04204A0D18BF40F0010040F220
:10334000FF72B2EB515F08BF40F00200012808BFD6
:10335000052070470907090E002804DB00F1E02072
:1033600080F80014704700F00F0000F1E02080F8B2
:10337000141D70472DE9F0414F1E00EBC7010446B4
:10338000D1E9000115461E4637F006020DD02A4647
:10339000334602F099FD7F1E04EBC703D3E90023F7
:1033A00002F02EFB37F00602F1D1022F25D0042FB8
:1033B00013D0062F18BFBDE8F0812A46334602F02D
:1033C00083FDD4E90A2302F01BFB2A46334602F0B0
:1033D0007BFDD4E9082302F013FB2A46334602F0B2
:1033E00073FDD4E9062302F00BFB2A46334602F0B4
:1033F0006BFDD4E9042302F003FB2A46334602F0B6
:1034000063FDD4E9022302F0FBFA2A46334602F0B8
:103410005BFDD4E90023BDE8F04102F0F1BA0122DE
:1034200003F05FBB02F0ECBA0022134610461146CF
:1034300002F0A2BB024A0020110703F052BB0000B9
:1034400001FDFFFF30380A2801D20120704700201B
:10345000704700002DE9FE4F07460E4600256846DE
:1034600000F0F8FF00246FF00F0AE8464FF0010962
:1034700057F8240056F82410401A00D5404203F0B3
:103480008FF9514603F05BFB58F8241011F0FF4F01
:103490000BD003F087F84FF07E5103F079FA0A4918
:1034A00020F00040884205DC07E00849084408494C
:1034B000884202D309FA04F00543641C032CD7DBCD
:1034C0002846BDE8FE8F0000295C0F3E666666C197
:1034D0009A99D9002DE9F04D8D4F21F0004A86B020
:1034E00005460C46BA452ADBAAEB070028430AD05A
:1034F0008848824501DC1AD1CDB106B02846BDE826
:10350000F04DFFF78CBF844A844B284602F0DCFC68
:1035100007460E46824A834B2846214602F0D4FCD9
:1035200006B03A463346BDE8F04D02F069BA0120D4
:10353000FCF7EFFF06B0BDE8F04DFFF775BF7A4826
:10354000824542DABAF1795F0BDA2846FFF7EEFEE0
:10355000042808BFFFF76EFF284606B02146BDE8E5
:10356000F08D2A460B46104602F0AEFC834602461A
:103570006E480E460B4606217844FFF7FBFE5A467E
:10358000334602F0A1FC804669488A465A463346D3
:1035900004217844FFF7EEFE5A46334602F094FCCD
:1035A00000223B4602F02CFA02460B4640465146AA
:1035B00002F0E2FA2A46234602F086FC06B02A46CA
:1035C0002346BDE8F04D02F01BBA284624F0004126
:1035D00000223D463B4602F075FD4FF0FF3203F0FE
:1035E00080FA0646024653480F460B4606217844A9
:1035F000FFF7C0FE32463B4602F066FCCDE9000113
:103600004D4832463B4604217844FFF7B3FE32462C
:103610003B4602F059FC00222B4602F0F1F98346AA
:1036200002913046394602F07DF9804643480D4606
:10363000504517DCDDE900015A46029B02F09CFA76
:1036400042462B4602F040FC42462B4602F0D8F997
:10365000012203F046FA304A304B02F025FE304A90
:10366000304B4CE04FF0000A52460B46404602F009
:10367000C7F9CDE9031052462B461046194602F011
:1036800023FC32463B4602F01DFDDDE9033202F029
:1036900073FA06460F46DDE900015A46029B02F026
:1036A0006BFA8346009101223046394603F019FA3D
:1036B000194A1A4B02F006FD06460F460122404603
:1036C000294603F00EFA5A46009B02F0FDFB3246F3
:1036D0003B4602F0E9FD06460F46012250462946C8
:1036E00003F0FFF90E4DDFF858802A46434602F0FA
:1036F000E9FC32463B4602F0E5FC2A46434602F02E
:10370000E1FC002CD8BF81F0004106B0BDE8F08D8F
:103710000000F03F0000F07F075C143326A6913CC8
:10372000182D4454FB21F93F0000E03F7C4C000081
:10373000924C0000064C00001C4C00003333EF3F5D
:10374000FB21E93F2DE9F84F04460D4621F00040EA
:1037500000917349814211DC7249884201DC06D133
:103760002CB120462946BDE8F84FFFF758BE6E48F9
:10377000002DCCBF6D496E49BDE8F88F6D4981427F
:1037800011DD6D498142D8BF4FF0FF366DDD204617
:103790002946FFF7CBFD042808BFFFF74BFE204664
:1037A0002946BDE8F88F6549654F25F000458142FF
:1037B00033DD6449814219DD002632464FF08043F3
:1037C0002046294602F01CF980468A4601222046FE
:1037D000294603F086F900223B4602F065FD424689
:1037E000534602F0C9F904460D463EE00126002288
:1037F000BA463B462046294602F002F980460F466B
:10380000002253462046294602F04EFD42463B46E2
:1038100002F0B2F904460D4627E04B4981421BDD18
:10382000DFF828A10226002253462046294602F04E
:103830004BFB00223B4602F0E3F880460F46002295
:1038400053462046294602F02FFD42463B4602F0F1
:1038500093F904460D4608E0032622462B46002035
:103860003B4902F089F904460D4622462B46104694
:10387000194602F029FB8B46824602460B4602F0AF
:1038800023FB07460246334888460B460621784408
:10389000FFF770FD52465B4602F016FB82462E484B
:1038A0008B463A46434605217844FFF763FD3A4686
:1038B000434602F009FB02460B46002E504659468D
:1038C0000CDA02F09DF822462B4602F0FDFA01B018
:1038D00022462B46BDE8F04F02F0F4BB02F090F810
:1038E00022462B4602F0F0FA1C4A7A4402EBC60349
:1038F000D3E9002302F0D8FC22462B4602F0D4FC88
:10390000174A7A4402EBC603D3E9002302F0DAFB3C
:10391000009A002AB8BF81F00041BDE8F88F00008E
:10392000000010440000F07F182D4454FB21F93FA3
:10393000FB21F9BF0000DC3F0000203E0000F33F08
:103940000000F03F0000E63F008003400000F83F29
:103950000000F0BF1E4A0000DC4900007A49000068
:10396000424900002DE9F04D9446CCF1000423F0CB
:1039700000464CEA0404594F46EAD4749A468846F5
:1039800021F00042BC4206D8454240EA050442EA22
:10399000D474BC4204D9BDE8F04D6246FFF742BD85
:1039A000AAF14055A5F17F6555EA0C040BD002241D
:1039B00004EAAA744A4DDFF82CE144EAD87452EACA
:1039C000000B04D00CE0BDE8F04DFFF7BBBE002CAF
:1039D00014BF012CBDE8F08D022C30D0032C32D066
:1039E00056EA0C0B0AD0BE4220D1BA4209D126F0C9
:1039F000804622F080423346114617E000291ADB48
:103A000025E0DFF8E4B0FB44002C04BFDBE9000153
:103A1000BDE8F08D012C02BFDBE9000181F000411F
:103A2000BDE8F08D022C0AD0032C0CD0BA4212D182
:103A3000B8F1000F0BDA2A482C49BDE8F08D284672
:103A40002B49BDE8F08D28467146BDE8F08D24482D
:103A50002849BDE8F08D921B12153C2AC4BF204FA7
:103A6000244E10DCBAF1000FBEBF12F13C0F00274C
:103A70003E4608DB624602F07FF821F00041FFF786
:103A800061FE07460E4694B1012C08BF86F0004641
:103A90000DD0194A194B022C3846314615D002F088
:103AA00003FC2A46BDE8F04D114B02F0FDBB00229D
:103AB00013463846314602F0B7F904BF0220FCF73E
:103AC00028FD38463146BDE8F08D02F0EDFB2A4670
:103AD000BDE8F04D064B02F0F5BA00000000F07FA3
:103AE000182D4454FB2109C0D6480000FB21F9BF22
:103AF000FB210940FB21F93F075C143326A6A13CBA
:103B000008B560B120208DF8000028208DF8010054
:103B100030208DF8020038208DF8030004E0A32245
:103B200004216846FCF747FC6A46042140F69E20C3
:103B300001F062FE01F020FB08BD00003EB5044626
:103B400002208DF80000CA208DF80100E3208DF8D6
:103B5000020009208DF803006A460421682001F064
:103B60004BFEA3208DF80000610609D5C0218DF819
:103B70000110C8218DF80210C2218DF8031005E054
:103B80008DF801008DF802008DF8030014F4C07F59
:103B900009D0C4218DF80410CC218DF80510C62160
:103BA0008DF8061005E08DF804008DF805008DF8FD
:103BB00006008DF808008DF807008DF809006A46A8
:103BC0000A2140F6A72001F017FEA0074FF0D80504
:103BD00003D020208DF8000001E08DF800506A46E7
:103BE000012140F6B62001F007FEA00601D5012014
:103BF00000E0002000F08EF814F4C07F1ED0E00535
:103C00000AD5B2208DF800008B208DF80100B62077
:103C10008DF802009B2009E0B0208DF80000802084
:103C20008DF80100B4208DF8020090208DF803007B
:103C30006A46042140F6A22001F0DEFDE1074FF4C0
:103C40000B6022D0F8218DF800106A46012101F0A6
:103C5000D3FDFA21072000F049FB072000F014FBF8
:103C6000012000F031FB642000F0D4FB4FF4FA7027
:103C700000F0E0FBC821254800F0CEFA282000F033
:103C8000E3FA0A2000F0F0FA05E08DF800506A46E9
:103C9000012101F0B1FDA00703D5D9208DF8000066
:103CA00001E08DF800506A46012140F23D7001F0BC
:103CB000A3FD600701D5012000E0002000F048F8D6
:103CC000E00601D5012000E00020FFF719FF104DAC
:103CD00044F00800688101F04FFA0020A8736006E4
:103CE00001D50620A87314F4C07F02D0A87B801DE4
:103CF000A87314F0140F02D0A87B1030A873A0078B
:103D000002D0A87B001DA87300203EBD09E3CA02B3
:103D1000780000200EB54FF4976310B106A107C9D3
:103D200001E008A207CA8DE807006A460921184683
:103D300001F062FD0EBD0000B8AAB38DB4980D3538
:103D40005D000000B8AAAAAAB088C3C5C7000000D9
:103D500008B560B1C0208DF80000C2208DF80100C8
:103D6000C4208DF80200C6208DF8030004E08B22E9
:103D700004216846FCF71FFB6A46042140F69820A0
:103D800001F03AFD01F0F8F908BD0000C8234FF436
:103D90008062024940F6F63001F0D0B8D4750008D0
:103DA0002DE9FF4F89B01746DDE916520024544E25
:103DB000884681462C80A246B07B694601F06AF9AC
:103DC0004FF0FF3B18B158460DB0BDE8F08F708939
:103DD00010F0140F4CD0BDF800109DF8022049BA25
:103DE000090441EA02239DF803100B433B60BDF830
:103DF00004109DF8062049BA090441EA02229DF800
:103E000007101B140A437A60BDF808109DF80A4099
:103E100049BA090441EA04219DF80B4012142143D8
:103E2000B960BDF80C409DF80EC064BA240444EAA1
:103E30000C2C9DF80F4009144CEA040CC7F80CC078
:103E40004FEA2C475B43494302FB023207FB071151
:103E500011441024A1F17061B1F1007F04D901F087
:103E60008BF9A5F800A0AEE7298841F4807129807C
:103E70004206694611D50A19A41D13885BBAA8F831
:103E8000003053885BBAA8F80230928852BAA8F87A
:103E900004202A8842F008022A8010F4C07F11D042
:103EA0000A19A41D13885BBAA9F8003053885BBABD
:103EB000A9F80230928852BAA9F804202A8842F060
:103EC00070022A80800716D00C44E07800F0C0050C
:103ED00000F03F016078C00706D0C80801F0070174
:103EE0003268491C02B190476078000703D57168B9
:103EF00009B1A80988470C9800F09EFD002063E7EF
:103F0000780000202DE9FF41044603A800F0FEFEE2
:103F1000BDF80C00410CC3032F48008900F00302D8
:103F200054F82250420700D56D42C0F3C102860604
:103F300054F8222000D55242C0F38116C00554F82F
:103F4000264000D56442A5FB0367E81700FB037019
:103F500005FB0100850045EA9670A2FB0367D517B3
:103F600005FB037502FB0152950045EA9672A4FB1E
:103F70000367E51705FB037304FB01318B0043EA7C
:103F80009671030E8DF80030030C8DF80130030A92
:103F90008DF802308DF80300100E8DF80400100C1F
:103FA0008DF80500100A8DF80600080E8DF808003F
:103FB000080C8DF80900080A8DF80A008DF8072012
:103FC0008DF80B106A460C214FF4257001F014FC9B
:103FD00004B0BDE8F08100007800002030B5044650
:103FE00013A285B007CA8DE807004FF0FF35C82C33
:103FF00016D8C820B0FBF4F1491E080A8DF80C0051
:104000008DF80D1003AA022140F2162001F0F4FBF6
:1040100030B96A460C2140F6C12001F0EDFB10B129
:10402000284605B030BD054884810020F9E700002E
:10403000FEF2ABC4AAF1DFDFBBAFDFDF7800002008
:10404000F8B53049098901F0030250F822404A07C7
:1040500000D56442C1F3C1028B0650F8222000D57E
:104060005242C1F3811350F82330C80500D55B429A
:10407000254984FB0140850045EA947082FB01429A
:10408000A40F44EA820483FB0121950F45EA8105D0
:10409000010E8DF80010010C8DF80110010A8DF849
:1040A00002108DF803006A4604214FF4747001F089
:1040B000A3FB4FF0FF3688B9200E8DF80000200CCE
:1040C0008DF80100200A8DF802008DF803406A4641
:1040D00004214FF4757001F08FFB08B13046F8BD34
:1040E000280E8DF80000280C8DF80100280A8DF8A4
:1040F00002008DF803506A4604214FF4767001F0F7
:104100007BFBF8BD7800002009E3CA022DE9FF41DE
:1041100004463CA004F00303006802903AA0006843
:1041200003903AA006683AA0056802A8C15C8DF821
:104130000010C4F3C101425C8DF80120C4F3811268
:10414000805C8DF8020003A8C35C8DF80430415CEC
:104150008DF80510805C8DF806006A46032140F258
:10416000264001F049FB4FF0FF37E0BB01AA0321D5
:1041700040F22A4001F040FBA8BBCDE90065600792
:104180000BD59DF8000040F001008DF800009DF86F
:10419000040040F001008DF80400A0060BD59DF846
:1041A000010040F001008DF801009DF8050040F08D
:1041B00001008DF80500E0050BD59DF8020040F0E8
:1041C00001008DF802009DF8060040F001008DF816
:1041D00006006A4603214FF4886001F00DFB10B918
:1041E00001AA032100E004E040F2314001F004FBA9
:1041F00018B1384604B0BDE8F081064804810020BB
:10420000F8E700004CCD6C000CC92C003656760047
:1042100026466600780000204FF47A7290FBF2F098
:1042200008B54843010E8DF80010010C8DF80110FF
:10423000010A8DF802108DF803006A4604214FF43C
:10424000AE7001F0D9FA08BD0521B0FBF1F008B558
:10425000010A8DF800108DF801006A4602214FF422
:10426000AD7001F0C9FA08BD0521B0FBF1F008B549
:10427000010A8DF800108DF801006A4602214FF402
:10428000AC7001F0B9FA08BD08B500218DF8001036
:10429000C10702D030218DF80010810705D59DF8A7
:1042A000001041F00C018DF80010400705D59DF875
:1042B000000040F003008DF800006A4601214FF431
:1042C000A47001F099FA08BD08B560B1042800D9BE
:1042D0000420401E8DF800006A46012140F24F1074
:1042E00001F08AFA08BD0120F3E700002DE9FC4146
:1042F000054640074FF0FF367CD0B1F5C86F79D83E
:10430000084602F065FA3E4902F04CF9074601A85A
:1043100000F0DEFC9DF80400022806D004280DD031
:1043200008282ED0102865D134E00E21384602F03E
:1043300006FC02F015FA84B2324907E00D21384636
:1043400002F0FDFB02F00CFA2F4984B2384602F06D
:1043500053FA02F005FA210A8DF8001080B28DF8A8
:104360000140010A8DF802108DF80300E8076C4641
:1043700020D0224602214FF4EA7001F03DFAC8BB7A
:1043800011E00C21384602F0DAFB02F0E9F984B2C0
:104390001E49DBE70B21384602F0D1FB02F0E0F9C1
:1043A00084B21B49D2E7A21C02214FF4927001F0A3
:1043B00023FAF8B9A8070DD56A4602214FF4EC702C
:1043C00001F01AFAB0B9A21C02214FF4947001F066
:1043D00013FA78B9680710D56A4602214FF4EE70D7
:1043E00001F00AFA30B9A21C02214FF4967001F0D4
:1043F00003FA10B13046BDE8FC810020FBE7000065
:1044000000004843000040460000C0450000404511
:104410000000C0440521B0FBF1F008B5010A8DF899
:1044200000108DF801006A4602214FF4EF7001F090
:10443000E3F908BD0521B0FBF1F008B5010A8DF8DC
:1044400000108DF801006A4602214FF4ED7001F072
:10445000D3F908BD2DE9FE430646264801AB0422E8
:1044600040680D210078FEF767FB10B10720BDE81A
:10447000FE839DF804101C2000EAD1029DF807106D
:10448000DFF87490C1F301131A438DF800209DF8F2
:104490000520C1F3810300EAD2021A438DF80120FE
:1044A0009DF8062001F0030100EAD2000843002431
:1044B000124F8DF80200A0466D46285D10B146F8F7
:1044C00024900AE046F824800DE000BF56F824004E
:1044D000394602F091F946F82400285D401E10F09C
:1044E000FF002855F2D1641CE4B2032CE5D3002070
:1044F000BDE700001C0000207B14AE3E1D5A843F27
:104500002DE9FE4F05460120C14E8DF800004FF009
:1045100000088DF8018030680C461746817C706871
:104520006B4602220078FEF794FB4FF0FF3A00281A
:104530007AD1C820FCF79EFF8DF8008030686B466A
:104540000122C17B70680078FEF783FB0028EFD161
:1045500030686B460122417970680078FEF779FB7C
:104560000028E5D130686B460122817C70680078B4
:10457000FEF76FFB0028DBD130686B460122C17D5E
:1045800070680078FEF765FB0028D1D130686B4673
:104590000122017970680078FEF75BFB0028C7D123
:1045A0004FF00C098DF8009030686B4601220179BC
:1045B00070680078FEF74DFB002835D10F20FCF71E
:1045C00059FFB06A6B460122407A8DF800003068CE
:1045D000817870680078FEF73CFB002824D1B06A2F
:1045E0006B460122007A8DF80000306841787068CF
:1045F0000078FEF72EFB002873D1B06A807A0FB1E5
:1046000040F0E0008DF8000030686B4601228179AF
:1046100070680078FEF71DFB002862D12FB1B06AE8
:10462000C07A40F0E00001E04AE018208DF8000078
:1046300030686B460122C17970680078FEF709FB8B
:10464000F0BB17B1C820FCF715FF40208DF8000023
:1046500030686B460122017970680078FEF7F9FA3C
:1046600070BB78208DF8000030686B4601224179DC
:1046700070680078FEF7EDFA10BB3220FCF7FAFE06
:104680008DF80080306847466B464179706801229A
:104690000078FEF7DEFA98B931687068B046897A1A
:1046A00000786B460222FEF747FA48B9BDF80000D1
:1046B000AF6040BAB0FBF9F06F60C6B22F6000E0A7
:1046C0000FE0A76067602760002739E0D8F8001086
:1046D000D8F804006B46C97A00780C22FEF72CFA51
:1046E00010B15046BDE8FE8FBDF80000236840BA07
:1046F00000B2BDF80210BDF804201844206049BA89
:10470000606809B20844606052BAA06812B21044EE
:10471000A060BDF806002B6840BA01B2BDF80800E1
:10472000BDF80A201944296040BA696800B20844FB
:10473000686052BAA86812B210447F1CFFB2A86029
:10474000B742C3D328688322C117090441EA104144
:1047500000040023FBF744FD32460023FBF740FD35
:10476000286068688322C117090441EA10410004E7
:104770000023FBF735FD32460023FBF731FD68606F
:10478000A8688322C117090441EA104100040023EC
:10479000FBF726FD32460023FBF722FDA8602068C8
:1047A0004FF40065C117090441EA104100042A468C
:1047B0000023FBF715FD32460023FBF711FD2060B7
:1047C00060682A46C117090441EA10410004002329
:1047D000FBF706FD32460023FBF702FD6060A06890
:1047E0002A46C117090441EA104100040023FBF7DF
:1047F000F7FC32460023FBF7F3FCA060002802DD43
:10480000A0F5803001E000F58030A060002069E76D
:104810001C0000202DE9F84F81462E4888460025CF
:1048200040686B46032200780D21FEF785F910B130
:104830000720BDE8F88F9DF80000002400F01F005D
:104840008DF800009DF801006FF00F0B00F01F00C5
:104850008DF801009DF802006E4600F01F008DF8F3
:1048600002004FF0010A00BF59F8241058F8240044
:10487000081A00D5404201F093FF594602F05FF953
:104880000746305DC0B1144802E0144901F0B4FF9E
:10489000315D491E11F0FF013155F6D10146384610
:1048A00001F080FE4FF07E5102F072F80C4920F0CA
:1048B0000040884205DC07E00A483844B0F1D97F5F
:1048C00002D90AFA04F00543641C032CCCDB284609
:1048D000AFE700001C0000200000C84154E3853F02
:1048E000295C0F3E0000E0BE00B5024600F00DF866
:1048F0000346D01C00F009F843EAC003901D00F005
:1049000004F843EA801080B200BD90F9001000293D
:1049100002DD4FF00000704702DA4FF004007047EC
:1049200090F90110002902DD4FF00100704702DA12
:104930004FF00500704790F90200002802DD4FF0AB
:104940000200704702DA4FF0060070474FF0070090
:1049500070470000FDF774F8FEF782FBFEF7A2F93E
:10496000FEF708FAFEF77EFAFEF724FAFEF7CAFA17
:10497000FEF7AEFAFEF788F800F058F90021102390
:104980001DA20846FEF71CFB00211E48FDF770FD26
:104990000C211C48FDF76CFD0D210846FEF736F88A
:1049A000194C1A4D6420FCF765FD174A0832111F97
:1049B000081F00F06DF8606801F060FD02460B46CC
:1049C00013A11748FBF730FC1023154A02210020E1
:1049D000FEF7F6FAFCF73AFD286801F04FFD0246B3
:1049E0000B4610A10E48FBF71FFC0C230C4A0421B8
:1049F0000020FEF7E5FAD5E7496E69742053756328
:104A000065737300F00000205C0000205800002057
:104A1000726F6C6C3A252E32662020200000000058
:104A20008800002064697374616E63653A252E32D4
:104A30006620202000000000704700002DE9F041B2
:104A4000124C20F00101002594F8240010B1002040
:104A5000BDE8F081A07A4FF0FF3668B10840277CAE
:104A60002074884200D0354641B1012000F02EFF6D
:104A700000F082FB38B127743046E9E7207D00B1B1
:104A8000012000F023FF2846E2E700001C00002080
:104A90002DE9F74F8EB00CA902A8CDE900010BABB0
:104AA00003AA09A907A8FFF77BF918B1012011B0E3
:104AB000BDE8F08FBDF80800C0057DD5039801F072
:104AC0006FFE6FF01D04214602F039F8824604980B
:104AD00001F066FE214602F032F88146059801F0A9
:104AE0005FFE214602F02BF88046069801F058FE42
:104AF000214602F024F805460121504602F01FF835
:104B00000646414601F078FE04464FF040414846D3
:104B100001F072FE0746294601F06EFE214601F0C3
:104B2000D9FC01F0ABFCFEF7D5FC4FF0663B5A46D2
:104B30003D4B01F0C9F900F031FF0E9908600121E9
:104B4000404601F0FCFF4146009001F055FE04464E
:104B50003846494601F050FE214601F019FF4FF05A
:104B60007E5101F0B7FC01F089FC07460C46304647
:104B7000494601F041FE06462946009801F03CFEF8
:104B8000314601F0A7FC01F079FC3A462346FEF7D6
:104B9000E9FE5A46244B01F097F900F0FFFE0F9909
:104BA00008602946084601F027FE074641460846A8
:104BB00001F022FE064600E034E04946084601F0D6
:104BC0001BFE04465146084601F016FE214601F040
:104BD00081FC314601F0DCFE394601F0D9FE01F0DE
:104BE0004DFC06460C462946504601F005FE05469A
:104BF0004146484601F000FE294601F06BFC0121C8
:104C000001F09DFF01F03AFC32462346FEF7AAFE72
:104C10005A46054B01F058F900F0C0FE10990860A3
:104C2000002044E7022042E766A64C4010B5FDF79D
:104C3000FDFD00F0F1F808B10A2010BD782000F069
:104C40007FFD10F0FF0F01D0012010BD7820FFF78D
:104C5000F5FE10F0FF0F01D0022010BD642000F01F
:104C60002FFD10F0FF0F01D0032010BDFFF78EF8CD
:104C700010F0FF0F01D0042010BD1448FFF734FEE0
:104C8000FFF744FA10F0FF0F01D0052010BD40F2ED
:104C90007310FEF753FF10F0FF0F01D0062010BD78
:104CA0006420FFF79BF910F0FF0F01D0072010BD23
:104CB00000F0CCFD08B1082010BD012000F026FC5A
:104CC00010F0FF00F8D0092010BD000048000020BF
:104CD0000D494A7A42B1012A08D0022A0FD0032A8C
:104CE0000FD04FF0FF307047022200E00422027024
:104CF000C97C11B11106C90D01700020704708224E
:104D0000F5E71022F3E700001C0000200F494A7A63
:104D100042B1012A09D0022A11D0032A12D04FF041
:104D2000FF3070474FF4804201E041F69C720280F0
:104D3000C97C11B1C2F34E010180002070474FF4CD
:104D40008052F4E74FF40062F1E700001C000020FD
:104D50000B49097A39B1012907D002290AD0032960
:104D60000BD0002103E0FA2101E04FF4FA71018039
:104D7000002070474FF47A71F9E74FF4FA61F6E7D3
:104D80001C0000200A49097A41B1012908D00229F2
:104D90000AD003290AD04FF0FF307047054900E0E0
:104DA00005490160002070470449FAE70449F8E723
:104DB0001C00002000000343000083423333034201
:104DC000333383410C49C97A072913D2DFE801F054
:104DD0001204060A0C0E1000BC2100E062210180C2
:104DE000002070472A21FAE71421F8E70A21F6E7A4
:104DF0000521F4E70021F2E71C000020054991F8A5
:104E0000242012B14FF0FF307047C9890180002083
:104E1000704700001C0000202DE9FC41464C80201A
:104E20008DF8000020686B460122817C6068007864
:104E3000FDF70FFF4FF0FF37002875D16420FCF716
:104E400019FB00258DF8005020686B460122817CFB
:104E500060680078FDF7FDFE002865D120686B468C
:104E60000622817D60680078FDF766FE00285BD130
:104E70009DF805009DF80310C007400F01F00101E7
:104E800040EA41009DF801104FF0010601F00101D8
:104E9000084304D0012831D0022810D044E0206813
:104EA0006B460122C17860680078FDF745FED8BBEB
:104EB0009DF8000010F00F0036D004281ED0E574D5
:104EC000FF2004F80A0F4FF6FF7104F8020C04F8F3
:104ED000010C6070A180A0712072A67026766576A4
:104EE000E572A572E56025616561A576E576A58325
:104EF0004FF4FA6000F046FBB0B901E0E674DFE77A
:104F0000022000F061FA78B92A2000F0A3FB58B91A
:104F1000322000F0D5FB38B90020FFF78FFD18B91B
:104F2000002000F085FA10B13846BDE8FC81002071
:104F300000F006FC0020F8E71C0000202DE9FF4FE0
:104F4000DFF89480064685B098F8250015460F4690
:104F50004FF0FF39B0BBAFB3002420E0301B102866
:104F600000DD102080B283463A1901469246204661
:104F700000F042FC30BB6A465946204600F0D2F8A9
:104F800000BB50465A466946FBF7E9F920B16FF07D
:104F9000010009B0BDE8F08F04EB0B0084B2B4420D
:104FA000DCD3280A8DF810008DF81150D8F80000D5
:104FB000444604AB817ED8F8040002220078FDF755
:104FC00048FE08B14846E4E7012084F82500089827
:104FD000E0840020DDE700001C0000202DE9F843FC
:104FE00005464FF0FF39282844D80727284C0026CB
:104FF0007DB1012000F0FCFA20208DF800004FF078
:105000000108012D17D0052D18D88DF80180052035
:105010001FE0002000F0ECFA8DF800608DF80170C0
:1050200020686B460222817C60680078FDF711FEE3
:1050300000BB267529E08DF80160E8E7142D04D83F
:1050400002208DF801000A2003E003208DF8010002
:10505000142000F0FFFA9DF801006B4607EB80106A
:105060008DF8010020680222817C60680078FDF7DD
:10507000F0FD10B14846BDE8F8830820A072267301
:1050800084F814800020FFF7D9FC0020F3E700002B
:105090001C0000202DE9F843214C0646174694F8E1
:1050A000240089464FF0FF3890B3A07A80B320687F
:1050B0006B460222817A60680078FDF73DFD38BBBF
:1050C000BDF8000045BAB54202D2002038701FE09A
:1050D00060684188B5EB510F11D9216800786B46A3
:1050E000497C0122FDF728FD90B99DF80000C0061B
:1050F00005D500F041F86FF00100BDE8F8832068A5
:10510000F2B24B46C17A60680078FDF715FD08B130
:105110004046F2E7B5FBF6F0401E38700020ECE7A1
:105120001C000020F8B516000D464FF0FF371FD0C9
:10513000104CA17AE1B1010A8DF80010C0B28DF8CF
:105140000100411960684289914211D821680078B4
:105150006B46097E0222FDF77CFD48B92068EAB261
:105160003346417D60680078FDF7E6FC002800D0FA
:105170003846F8BD1C000020F8B5564C4FF0FF36FD
:10518000A07A00287DD000258DF8005020686B465D
:105190000122C17B60680078FDF75BFD002870D1BB
:1051A00020686B460122417960680078FDF751FD67
:1051B000002866D120686B4601220179606800787A
:1051C000FDF747FD00285CD194F82400E0B30C20E3
:1051D0008DF8000020686B46012201796068007834
:1051E000FDF737FD002872D13220FCF743F9C020CB
:1051F0008DF80000A07AC00702D0E0208DF80000F2
:1052000020686B460122017960680078FDF721FD76
:1052100000285CD1607C18B102208DF8000001E00C
:105220008DF8005020686B460122C17B60680078D1
:10523000FDF70FFD28BB8DF8005020686B4601225A
:105240004179606800783EE0FFE704208DF80000B7
:1052500020686B460122017960680078FDF7F9FC4F
:1052600078B9A07C90B9A07AC0070FD05FF0600039
:105270008DF8000020686B46012201796068007893
:1052800000E024E0FDF7E5FC08BB01E04020EFE78B
:105290003220FCF7EFF8607C18B101208DF8000097
:1052A00001E08DF8005020686B460122C17B6068E8
:1052B0000078FDF7CEFC50B92068064B01224179F9
:1052C000606810330078FDF7C4FC002800D0304639
:1052D000F8BD00001C0000202DE9F047394C824643
:1052E0008AB094F824000F4620B1002000F00EF997
:1052F000012600E0002607A8FFF72AFD06A8FFF711
:10530000E7FC09A8FFF75EFD08A8FFF777FD94F812
:105310000A9094F810800025002239465046FFF785
:10532000EFF810B16D1C022DF6DB022D1AD000250E
:10533000012203A96846FFF7E3F810B16D1C022DA6
:10534000F6DB022D0ED003A93846FEF783F8C7B26C
:1053500069465046FFF75EFA10F0FF0F4FF0000568
:1053600002D002E0002503E001250FB945F0020557
:10537000FF2020726072E0724FF6FF71E181A0722F
:10538000207401202073BDF81C0000F0FBF89DF88C
:10539000180000F019F8BDF8240000F05BF9BDF822
:1053A000200000F08DF9484600F0CAF94046FFF7AA
:1053B00045FB16B1012000F0A9F80AB02846BDE867
:1053C000F08700001C00002038B5184C4FF0FF3566
:1053D000A17A19B3022806D0042806D008280ED0D6
:1053E00010281BD10DE0002000E008208DF80000FF
:1053F000607A9DF80010B0EBD10F04D005E01020CA
:10540000F4E71820F2E7002038BD20686B4601223F
:10541000C17960680078FDF71CFC08B1284638BDEA
:105420009DF80000C0086072EDE700001C0000203D
:10543000F8B5354C0546A07CA84201D10020F8BD46
:1054400031484FF0FF366B46D0E900104FF00102B3
:105450000979007835B3FDF76FFB70BB9DF800004C
:105460006B4620F020008DF80000206801220179B1
:1054700060680078FDF7EDFBF8B90320FBF7FAFF51
:1054800002208DF8000094F8220078B382202BE0EF
:1054900020686B460122017D60680078FDF7D9FB2A
:1054A00058B92EE0FDF748FB38B9A07AC0079DF83F
:1054B000000003D040F0200002E00CE020F02000CB
:1054C0008DF8000020686B46012201796068007841
:1054D000FDF7BFFB08B13046F8BD0320FBF7CAFF5C
:1054E00094F8220000B180208DF8000094F8230089
:1054F0000028CDD09DF8000040F030008DF800006D
:10550000C6E7A5749AE700001C00002038B51C4CC3
:1055100094F8241081421DD0002500B394F8250092
:10552000D0B1002000F0D2F90020FFF781FFE08C1D
:1055300000F0C6F88DF8005060686B4601220078D4
:105540002321FDF786FB012084F8240000F0BEF93A
:10555000FFF712FE002038BD4FF0FF3038BD0020AD
:1055600000F0B4F9207C8DF8000060686B460122E1
:1055700000782321FDF76DFB84F82450E8E7000054
:105580001C00002038B5194C4FF0FF35A17A31B31B
:10559000FA2809D0B0F5FA7F08D0B0F57A7F0FD09D
:1055A000B0F5FA6F1BD10DE0002000E008208DF867
:1055B0000000207A9DF80010B0EBD10F04D005E078
:1055C0001020F4E71820F2E7002038BD20686B4671
:1055D0000122817960680078FDF73BFB08B128461D
:1055E00038BD9DF80000C0082072EDE71C000020C7
:1055F00038B5174C054694F82300A84201D1002085
:1056000038BD0DB1302000E000208DF80000A07CF6
:1056100028B19DF8000040F002008DF8000094F8D9
:10562000220028B19DF8000040F080008DF80000B5
:1056300020686B460122017D60680078FDF709FB58
:1056400010B14FF0FF3038BD84F82350D7E7000089
:105650001C00002038B5194C4FF0FF35A17A31B34A
:10566000BC2801D3012010E0622801D302200CE005
:105670002A2801D3032008E0142801D3042004E0E1
:105680000A2801D3052000E006208DF80000E07A0A
:105690009DF80010884201D1002038BD20686B467B
:1056A0000122817860680078FDF7D3FA08B12846B6
:1056B00038BD9DF80000E072EEE700001C000020FD
:1056C000F8B51E4D04464FF0FF37A87A48B395F859
:1056D000240030BB287D4FF47A7648B164B1282C81
:1056E00003D8E0B2FFF77AFC26E00020FFF776FC53
:1056F000042C05D2042406E00020FFF76FFCF9E734
:10570000B44200D93446B6FBF4F0401E8DF80000D8
:1057100028686B460122417868680078FDF799FA9D
:1057200008B13846F8BD9DF80000401CB6FBF0F00B
:10573000E8814008FFF78EFF0020F8BD1C00002024
:10574000F8B5054610F0700F4FF0000601D00120AB
:1057500004E015B18DF8006002E040208DF80000F3
:10576000244C6B4601222068817C60680078FDF73C
:1057700070FA4FF0FF3760BB9DF8000020F040004A
:1057800020738DF80060680602D404208DF80000B4
:10579000A80605D49DF8000040F002008DF8000036
:1057A000E80605D49DF8000040F001008DF80000E7
:1057B000280705D49DF8000040F038008DF800005F
:1057C00020686B460122C17C60680078FDF741FAD1
:1057D00010B1A6723846F8BD25B1082D02D00020C0
:1057E000FFF706FFA57226753220FBF743FE002067
:1057F000F8BD00001C000020F8B516000D464FF063
:10580000FF371FD0104CA17AE1B1010A8DF80010CA
:10581000C0B28DF80100411960684289914211D8E7
:10582000216800786B46097E0222FDF712FA48B91A
:105830002068EAB23346417D60680078FDF709FAD6
:10584000002800D03846F8BD1C00002010B588B0F4
:10585000694604A8FFF740FD032802D0012008B0E4
:1058600010BD07A8FFF78EFA049800F099FF07997A
:105870000C4600F0C1FF00F057FF0490059800F0BF
:105880008FFF214600F0B8FF00F04EFF059006980C
:1058900000F086FF214600F0AFFF00F045FF0690C4
:1058A00004A8FEF7CDFB03A8FFF730FABDF80C0003
:1058B000009941430091019941430191029941436B
:1058C00068460291FEF71EFB0020C8E7F8B5144CAD
:1058D0000146224694F82460D2E9000200235D1EAE
:1058E00056B179B1022111E0C17B10786B460122DB
:1058F000FDF7AFF968B90EE0A67A56B111B1617C37
:1059000061B902E08DF80030EEE701218DF800105A
:10591000EAE72846F8BD9DF8000060740020F8BD55
:105920001C0000202DE9F04106460F4600F0D6FB92
:10593000041E0D4618BF0120284320F00040C0F18E
:105940007F6000F1E040C00F0ED0301C18BF012076
:10595000384320F00040C0F17F6000F1E040C00F0C
:1059600004BF0120FAF7D5FD20462946BDE8F081A5
:1059700010B500290AD00878002807D005487844D7
:10598000FBF74EF9002801D0002010BD02487844F2
:1059900010BD00001E2A0000162A000021F000425F
:1059A000A2F16052B2F5801F01F0004328BFD2F18E
:1059B0007F6C0BD95FEA001C43EAC20242EB5070D5
:1059C00018BF704728BF20F001007047B2F5801F54
:1059D000BCBF184670474FEA410C1CF5001F02D2AD
:1059E000084600F0D0BF70B500F018FB0000008939
:1059F000FFF7F6BF4FF00040A0F5800070470000B1
:105A000010B591EA030F48BF83F0004300F15484BE
:105A1000841A71EB030C05D2121943EB0C03001B23
:105A200061EB0C01DFF824E14FEA1154A4EB135CA5
:105A30001EEA430F18BF9EEA445F73D023EA0E03A9
:105A4000DCF1200E21EA045143F4801332D322FA10
:105A50000CFE10EB0E0023FA0CFE41EB0E01CCF114
:105A6000200E03FA0EFE10EB0E0051F10001B1F50D
:105A7000801FCCF1200E32D201EB045112FA0EF24B
:105A8000BDE8104058BF7047401C38BF5FEA420273
:105A900018BF7047002814BF20F0010041F1000139
:105AA0004FEA410313F5001F38BF7047A1F1C04111
:105AB00000F002BB012A43EB0302ACF1200CDCF145
:105AC0001F0E32BF4FF0000E23FA0CF310EB030051
:105AD00041EB0451B4EB115FD0D0A1EB045101F5BF
